BZCABR0991259546001  00036303PAGOPRV   20231018153651MOVICARSEAMORA000020000000005024742BZMOV031113286700581236870000002023101720231017                                    CBPAGO PROVEED#4118 MARTES 17 OCT/2023 PAGOS VARIOS                                                   00100000000109703400134030005018787                                                                                     00050187870311132867903  003050PDIRCUE00000consola        100000                                        0000028084
BZMOV031113286800581236870000002023101720231017                                    CBCOBRO DE COMISION                                                                                   00100000000000018000134030005018787                                                                                     00050187870311132868783  003050PDIRCUE00000consola        100000                                        0000028084
BZMOV031113286900581236870000002023101720231017                                    CBPAGO PROVEED#4118 MARTES 17 OCT/2023 PAGOS VARIOS                                                   00100000000140369700134030005018787                                                                                     00050187870311132869537  003050PBCECUE00000consola        100000                                        0000028084
BZMOV031113287000581236870000002023101720231017                                    CBCOBRO DE COMISION                                                                                   00100000000000060000134030005018787                                                                                     00050187870311132870875  003050PBCECUE00000consola        100000                                        0000028084
BZMOV0311132871005812368700000620231017202310170992774436001       R0992774436001  PBFACTURA # 000023931 DEUDA: 323634 MANTENIMIENTO DE TELEVISOR000363RPA000000000053671                00100000000001500000134030005256796          DIGICASLE CENTRO DIGITAL S.A.                                              00052567960311132871903  003048PDIRCUE00000consola        200000                                        0000028084
BZMOV0311132872005812368700000720231017202310171792231116001       R1792231116001  PBFACTURA # 000005781 DEUDA: 321112 COMISION POR VENTA MARESA 000363RPA000000000053672                00100000000098266400134030005219823            AUTOSHARECORP S.A.*****                                                  00052198230311132872903  003048PDIRCUE00000consola        200000                                        0000028084
BZMOV0311132873005812368700001020231017202310170992151854001       R0992151854001  PBFACTURA # 000003258 DEUDA: 322078 COMISIONES POR VENTAS     000363RPA000000000053675                00100000000009937000134030875020376          CASAPLAN-MOTORPLAN S.A*****                                                08750203760311132873903  003048PDIRCUE00000consola        200000                                        0000028084
BZMOV0311171498005812368700000120231018202310181791287835001       R1791287835001  PLFACTURA # 000014923 DEUDA: 322242 COMISIONES POR VENTAS     000363RPA000000000053666                00100000000030131700110033271459804          CONSORCIO DEL PICHINCHA S.A. CONDELPI                                      3271459804031117149801   003413PBCECOB00000               200000                                        0000028084
BZMOV0311171525005812368700000820231018202310181790075494001       R1790075494001  PLFACTURA # 000019693 DEUDA: 322269 COMISIONES POR INSTALACION000363RPA000000000053673                00100000000002201100132030179557             ASOCIACION MUTUALISTA DE AHORRO Y CREDITO PARA LA VIVIENDA P               0179557   031117152501   003413PBCECOB00000               200000                                        0000028084
BZMOV0311171550005812368700001520231018202310181090084247001       R1090084247001  PLFACTURA # 000002963 DEUDA: 321756 COMISIONES POR DISPOSITIVO000363RPA000000000053680                00100000000011144500130032970775             COMERCIAL HIDROBO S.A. COMHIDROBO                                          2970775   031117155001   003413PBCECOB00000               200000                                        0000028084
BZMOV0311172357005812368700001220231018202310181804724738001       R1804724738001  PLFACTURA # 000000236 SERVICIO DE ALMUERZOS PERSONAL EN HUNTER000363RPA000000000053677                00100000000002580000110042209546401          VARGAS SORIA SAMANTHA ABIGAIL                                              2209546401031117235701   003413PBCECOB00000               200000                                        0000028084
BZMOV0311172395005812368700000320231018202310181792365031001       R1792365031001  PLFACTURA # 000008122 DEUDA: 322247 COMISIONDEL MES BONO EXTRA000363RPA000000000053668                00100000000001015100136032005192214          DISTRIVEHIC DISTRIBUIDORA DE VEHICULOS S.A.S                               2005192214031117239501   003413PBCECOB00000               200000                                        0000028084
BZMOV0311172418005812368700000520231018202310181704391174001       R1704391174001  PLFACTURA # 000000445 DEUDA: 323019 ARRIENDO DE OFICINA EN STO000363RPA000000000053670                00100000000025249500132034000163890          NOGUERA TACURI GUILLERMO PATRICIO                                          4000163890031117241801   003413PBCECOB00000               200000                                        0000028084
BZMOV0311172419005812368700001420231018202310181792365031001       R1792365031001  PLFACTURA # 000008123 DEUDA: 322248 COMISION DEL MES RENOVACIO000363RPA000000000053679                00100000000025386700136032005192214          DISTRIVEHIC DISTRIBUIDORA DE VEHICULOS S.A.S                               2005192214031117241901   003413PBCECOB00000               200000                                        0000028084
BZMOV0311174584005812368700000920231018202310180925635146001       R0925635146001  PLFACTURA # 000000016 SERVICIOS DE ALIMENTACION               000363RPA000000000053674                00100000000005000000110042201136395          IBARRA ROSERO RONALD JOEL                                                  2201136395031117458401   003413PBCECOB00000               200000                                        0000028084
BZMOV0311174764005812368700001120231018202310180105655450001       R0105655450001  PLFACTURA # 000000008 SERVICIO DE LIMPIEZA CUENCA             000363RPA000000000053676                0010000000000225000018804100343267           RODRIGUEZ CALDERON PETITA JESSENIA                                         100343267 031117476401   003413XBCECOB00000               201162No existe cuenta                        0000028084
BZMOV031117476500581236870000002023101820231018                                    PLN                                                                                                   00100000000002250000134030005018787                                                                                     00050187870311174765226  003048PDIRCUE00000               100000                                        0000028084
BZMOV0311174797005812368700000220231018202310180993372426001       R0993372426001  PLFACTURA # 000000074 DEUDA: 321446 ELABORACION DE PLANOS MECA000363RPA000000000053667                00100000000005600000110032100271571          BICTUM ECUADOR S.A.                                                        2100271571031117479701   003413PBCECOB00000               200000                                        0000028084
BZMOV0311174798005812368700001320231018202310181792421772001       R1792421772001  PLFACTURA # 000017416 DEUDA: 322286 COMISIONES POR VENTAS     000363RPA000000000053678                00100000000013783600136032054021991          AUTOLIDER ECUADOR S.A.S                                                    2054021991031117479801   003413PBCECOB00000               200000                                        0000028084
BZMOV0311174885005812368700000420231018202310181790368718001       R1790368718001  PLFACTURA # 000009463 DEUDA: 322161 COMISION POR VENTAS       000363RPA000000000053669                00100000000016027500110033086734804          BANCO DE LA PRODUCCION S.A. PRODUBANCO                                     3086734804031117488501   003413PBCECOB00000               200000                                        0000028084
