BZDET00000112345678          C12345678      Cesar Guillermo Coronado Guardia                            CHE001                        1000000000000125CHEQUE 05.03                                                                                             00000000000000000000                                                            Cesar Guillermo Coronado Guardia MAL DEL SOL 245 E+51927969658        PRO                    N      RPA
BZDET0000020911113041        C0911113041    MIRANDA SANCHEZ ALEXIS DENNY .                              CHE001                        1000000000000185PRUEBA                                                                                                   00000000000000000000                                                            MIRANDA SANCHEZ ALEXIS DENNY . . Ecuador          483263              PRO                    N      RPA
BZDET00000321548796          C21548796      Luis Antonio Palacios Muñoz                                 CHE001                        1000000000000275PRUEBA                                                                                                   00000000000000000000                                                            Luis Antonio Palacios Muñoz Ciudadela Kennedy Av.                     PRO                    N      RPA
BZDET0000040901613190        C0901613190    Oscar Kevin Bohorquez Mora                                  CHE001                        1000000000000145FACTURA CON RETENCION                                                                                    00000000000000000000                                                                                                              982347254           PRO                    N      RPA
